{
  "contractName": "Voting",
  "abi": [
    {
      "anonymous": false,
      "inputs": [
        {
          "indexed": false,
          "internalType": "uint256",
          "name": "pollId",
          "type": "uint256"
        },
        {
          "indexed": false,
          "internalType": "string",
          "name": "question",
          "type": "string"
        },
        {
          "indexed": false,
          "internalType": "string[]",
          "name": "options",
          "type": "string[]"
        },
        {
          "indexed": false,
          "internalType": "address",
          "name": "creator",
          "type": "address"
        },
        {
          "indexed": false,
          "internalType": "uint256",
          "name": "endTime",
          "type": "uint256"
        }
      ],
      "name": "PollCreated",
      "type": "event"
    },
    {
      "anonymous": false,
      "inputs": [
        {
          "indexed": false,
          "internalType": "uint256",
          "name": "pollId",
          "type": "uint256"
        },
        {
          "indexed": false,
          "internalType": "uint256",
          "name": "optionIndex",
          "type": "uint256"
        },
        {
          "indexed": false,
          "internalType": "address",
          "name": "voter",
          "type": "address"
        }
      ],
      "name": "VoteCasted",
      "type": "event"
    },
    {
      "inputs": [],
      "name": "pollCount",
      "outputs": [
        {
          "internalType": "uint256",
          "name": "",
          "type": "uint256"
        }
      ],
      "stateMutability": "view",
      "type": "function"
    },
    {
      "inputs": [
        {
          "internalType": "uint256",
          "name": "",
          "type": "uint256"
        }
      ],
      "name": "polls",
      "outputs": [
        {
          "internalType": "string",
          "name": "question",
          "type": "string"
        },
        {
          "internalType": "address",
          "name": "creator",
          "type": "address"
        },
        {
          "internalType": "uint256",
          "name": "endTime",
          "type": "uint256"
        },
        {
          "internalType": "bool",
          "name": "exists",
          "type": "bool"
        }
      ],
      "stateMutability": "view",
      "type": "function"
    },
    {
      "inputs": [
        {
          "internalType": "string",
          "name": "question",
          "type": "string"
        },
        {
          "internalType": "string[]",
          "name": "options",
          "type": "string[]"
        },
        {
          "internalType": "uint256",
          "name": "duration",
          "type": "uint256"
        }
      ],
      "name": "createPoll",
      "outputs": [],
      "stateMutability": "nonpayable",
      "type": "function"
    },
    {
      "inputs": [
        {
          "internalType": "uint256",
          "name": "pollId",
          "type": "uint256"
        },
        {
          "internalType": "uint256",
          "name": "optionIndex",
          "type": "uint256"
        }
      ],
      "name": "vote",
      "outputs": [],
      "stateMutability": "nonpayable",
      "type": "function"
    },
    {
      "inputs": [
        {
          "internalType": "uint256",
          "name": "pollId",
          "type": "uint256"
        },
        {
          "internalType": "uint256",
          "name": "optionIndex",
          "type": "uint256"
        }
      ],
      "name": "getVotes",
      "outputs": [
        {
          "internalType": "uint256",
          "name": "",
          "type": "uint256"
        }
      ],
      "stateMutability": "view",
      "type": "function"
    }
  ],
  "bytecode": "0x608060405234801561001057600080fd5b50610e57806100206000396000f3fe608060405234801561001057600080fd5b50600436106100575760003560e01c806391f366331461005c5780639207891d1461008c578063ac2f0074146100aa578063b384abef146100dd578063f8c860f4146100f9575b600080fd5b610076600480360381019061007191906107fb565b610115565b6040516100839190610a6b565b60405180910390f35b6100946101a8565b6040516100a19190610a6b565b60405180910390f35b6100c460048036038101906100bf91906107d2565b6101ae565b6040516100d494939291906109df565b60405180910390f35b6100f760048036038101906100f291906107fb565b610293565b005b610113600480360381019061010e9190610753565b6103c7565b005b600080600084815260200190815260200160002060050160009054906101000a900460ff16610179576040517f08c379a000000000000000000000000000000000000000000000000000000000815260040161017090610a4b565b60405180910390fd5b600080848152602001908152602001600020600201600083815260200190815260200160002054905092915050565b60015481565b60006020528060005260406000206000915090508060000180546101d190610cf1565b80601f01602080910402602001604051908101604052809291908181526020018280546101fd90610cf1565b801561024a5780601f1061021f5761010080835404028352916020019161024a565b820191906000526020600020905b81548152906001019060200180831161022d57829003601f168201915b5050505050908060030160009054906101000a900473ffffffffffffffffffffffffffffffffffffffff16908060040154908060050160009054906101000a900460ff16905084565b60008083815260200190815260200160002060050160009054906101000a900460ff166102f5576040517f08c379a00000000000000000000000000000000000000000000000000000000081526004016102ec90610a4b565b60405180910390fd5b60008083815260200190815260200160002060040154421061034c576040517f08c379a000000000000000000000000000000000000000000000000000000000815260040161034390610a2b565b60405180910390fd5b6000808381526020019081526020016000206002016000828152602001908152602001600020600081548092919061038390610d23565b91905055507ffe9b9fe32c3fe66775687ffbbb055de4489a6f99a6d31665430849156e8d74358282336040516103bb93929190610ae7565b60405180910390a15050565b600160008154809291906103da90610d23565b91905055506000806000600154815260200190815260200160002090508381600001908051906020019061040f9291906104e8565b508281600101908051906020019061042892919061056e565b50338160030160006101000a81548173ffffffffffffffffffffffffffffffffffffffff021916908373ffffffffffffffffffffffffffffffffffffffff16021790555081426104789190610c11565b816004018190555060018160050160006101000a81548160ff0219169083151502179055507f4997270caef501aa967d7218afbe95e6690e0ae3934d629c216263b1988b66dc60015485853385600401546040516104da959493929190610a86565b60405180910390a150505050565b8280546104f490610cf1565b90600052602060002090601f016020900481019282610516576000855561055d565b82601f1061052f57805160ff191683800117855561055d565b8280016001018555821561055d579182015b8281111561055c578251825591602001919060010190610541565b5b50905061056a91906105ce565b5090565b8280548282559060005260206000209081019282156105bd579160200282015b828111156105bc5782518290805190602001906105ac9291906104e8565b509160200191906001019061058e565b5b5090506105ca91906105eb565b5090565b5b808211156105e75760008160009055506001016105cf565b5090565b5b8082111561060b5760008181610602919061060f565b506001016105ec565b5090565b50805461061b90610cf1565b6000825580601f1061062d575061064c565b601f01602090049060005260206000209081019061064b91906105ce565b5b50565b600061066261065d84610b4f565b610b1e565b9050808382526020820190508260005b858110156106a257813585016106888882610714565b845260208401935060208301925050600181019050610672565b5050509392505050565b60006106bf6106ba84610b7b565b610b1e565b9050828152602081018484840111156106d757600080fd5b6106e2848285610caf565b509392505050565b600082601f8301126106fb57600080fd5b813561070b84826020860161064f565b91505092915050565b600082601f83011261072557600080fd5b81356107358482602086016106ac565b91505092915050565b60008135905061074d81610e0a565b92915050565b60008060006060848603121561076857600080fd5b600084013567ffffffffffffffff81111561078257600080fd5b61078e86828701610714565b935050602084013567ffffffffffffffff8111156107ab57600080fd5b6107b7868287016106ea565b92505060406107c88682870161073e565b9150509250925092565b6000602082840312156107e457600080fd5b60006107f28482850161073e565b91505092915050565b6000806040838503121561080e57600080fd5b600061081c8582860161073e565b925050602061082d8582860161073e565b9150509250929050565b600061084383836108de565b905092915050565b61085481610c67565b82525050565b600061086582610bbb565b61086f8185610bde565b93508360208202850161088185610bab565b8060005b858110156108bd578484038952815161089e8582610837565b94506108a983610bd1565b925060208a01995050600181019050610885565b50829750879550505050505092915050565b6108d881610c79565b82525050565b60006108e982610bc6565b6108f38185610bef565b9350610903818560208601610cbe565b61090c81610df9565b840191505092915050565b600061092282610bc6565b61092c8185610c00565b935061093c818560208601610cbe565b61094581610df9565b840191505092915050565b600061095d600e83610c00565b91507f506f6c6c2068617320656e6465640000000000000000000000000000000000006000830152602082019050919050565b600061099d601383610c00565b91507f506f6c6c20646f6573206e6f74206578697374000000000000000000000000006000830152602082019050919050565b6109d981610ca5565b82525050565b600060808201905081810360008301526109f98187610917565b9050610a08602083018661084b565b610a1560408301856109d0565b610a2260608301846108cf565b95945050505050565b60006020820190508181036000830152610a4481610950565b9050919050565b60006020820190508181036000830152610a6481610990565b9050919050565b6000602082019050610a8060008301846109d0565b92915050565b600060a082019050610a9b60008301886109d0565b8181036020830152610aad8187610917565b90508181036040830152610ac1818661085a565b9050610ad0606083018561084b565b610add60808301846109d0565b9695505050505050565b6000606082019050610afc60008301866109d0565b610b0960208301856109d0565b610b16604083018461084b565b949350505050565b6000604051905081810181811067ffffffffffffffff82111715610b4557610b44610dca565b5b8060405250919050565b600067ffffffffffffffff821115610b6a57610b69610dca565b5b602082029050602081019050919050565b600067ffffffffffffffff821115610b9657610b95610dca565b5b601f19601f8301169050602081019050919050565b6000819050602082019050919050565b600081519050919050565b600081519050919050565b6000602082019050919050565b600082825260208201905092915050565b600082825260208201905092915050565b600082825260208201905092915050565b6000610c1c82610ca5565b9150610c2783610ca5565b9250827fffffffffffffffffffffffffffffffffffffffffffffffffffffffffffffffff03821115610c5c57610c5b610d6c565b5b828201905092915050565b6000610c7282610c85565b9050919050565b60008115159050919050565b600073ffffffffffffffffffffffffffffffffffffffff82169050919050565b6000819050919050565b82818337600083830152505050565b60005b83811015610cdc578082015181840152602081019050610cc1565b83811115610ceb576000848401525b50505050565b60006002820490506001821680610d0957607f821691505b60208210811415610d1d57610d1c610d9b565b5b50919050565b6000610d2e82610ca5565b91507fffffffffffffffffffffffffffffffffffffffffffffffffffffffffffffffff821415610d6157610d60610d6c565b5b600182019050919050565b7f4e487b7100000000000000000000000000000000000000000000000000000000600052601160045260246000fd5b7f4e487b7100000000000000000000000000000000000000000000000000000000600052602260045260246000fd5b7f4e487b7100000000000000000000000000000000000000000000000000000000600052604160045260246000fd5b6000601f19601f8301169050919050565b610e1381610ca5565b8114610e1e57600080fd5b5056fea2646970667358221220aec7a118b0663cf8d0f9a4e5d067e4fa164d9fa017e47cdd3c4485dd0bf3bddb64736f6c63430008000033",
  "immutableReferences": {},
  "source": "// SPDX-License-Identifier: MIT\r\npragma solidity ^0.8.0;\r\n\r\ncontract Voting {\r\n    struct Poll {\r\n        string question;\r\n        string[] options;\r\n        mapping(uint => uint) votes;\r\n        address creator;\r\n        uint endTime;\r\n        bool exists;\r\n    }\r\n\r\n    mapping(uint => Poll) public polls;\r\n    uint public pollCount;\r\n\r\n    event PollCreated(uint pollId, string question, string[] options, address creator, uint endTime);\r\n    event VoteCasted(uint pollId, uint optionIndex, address voter);\r\n\r\n    function createPoll(string memory question, string[] memory options, uint duration) public {\r\n        pollCount++;\r\n        Poll storage poll = polls[pollCount];\r\n        poll.question = question;\r\n        poll.options = options;\r\n        poll.creator = msg.sender;\r\n        poll.endTime = block.timestamp + duration;\r\n        poll.exists = true;\r\n\r\n        emit PollCreated(pollCount, question, options, msg.sender, poll.endTime);\r\n    }\r\n\r\n    function vote(uint pollId, uint optionIndex) public {\r\n        require(polls[pollId].exists, \"Poll does not exist\");\r\n        require(block.timestamp < polls[pollId].endTime, \"Poll has ended\");\r\n\r\n        polls[pollId].votes[optionIndex]++;\r\n        emit VoteCasted(pollId, optionIndex, msg.sender);\r\n    }\r\n\r\n    function getVotes(uint pollId, uint optionIndex) public view returns (uint) {\r\n        require(polls[pollId].exists, \"Poll does not exist\");\r\n        return polls[pollId].votes[optionIndex];\r\n    }\r\n}\r\n",
  "sourcePath": "E:\\vs-code\\React Js\\MERN Stack\\Internship\\Decentralized Voting Application\\Server\\contracts\\Voting.sol",
  "compiler": {
    "name": "solc",
    "version": "0.8.0+commit.c7dfd78e.Emscripten.clang"
  },
  "schemaVersion": "3.4.16",
  "updatedAt": "2024-08-03T03:45:32.797Z",
  "devdoc": {
    "kind": "dev",
    "methods": {},
    "version": 1
  },
  "userdoc": {
    "kind": "user",
    "methods": {},
    "version": 1
  }
}