{
  "contractName": "PollContract",
  "abi": [
    {
      "anonymous": false,
      "inputs": [
        {
          "indexed": false,
          "internalType": "uint256",
          "name": "pollId",
          "type": "uint256"
        },
        {
          "indexed": false,
          "internalType": "string",
          "name": "question",
          "type": "string"
        },
        {
          "indexed": false,
          "internalType": "string",
          "name": "description",
          "type": "string"
        },
        {
          "indexed": false,
          "internalType": "string[]",
          "name": "options",
          "type": "string[]"
        },
        {
          "indexed": false,
          "internalType": "address",
          "name": "creator",
          "type": "address"
        }
      ],
      "name": "PollCreated",
      "type": "event"
    },
    {
      "anonymous": false,
      "inputs": [
        {
          "indexed": false,
          "internalType": "uint256",
          "name": "pollId",
          "type": "uint256"
        },
        {
          "indexed": false,
          "internalType": "address",
          "name": "voter",
          "type": "address"
        },
        {
          "indexed": false,
          "internalType": "uint256",
          "name": "optionIndex",
          "type": "uint256"
        }
      ],
      "name": "VoteCast",
      "type": "event"
    },
    {
      "inputs": [
        {
          "internalType": "uint256",
          "name": "",
          "type": "uint256"
        }
      ],
      "name": "polls",
      "outputs": [
        {
          "internalType": "string",
          "name": "question",
          "type": "string"
        },
        {
          "internalType": "string",
          "name": "description",
          "type": "string"
        },
        {
          "internalType": "address",
          "name": "creator",
          "type": "address"
        }
      ],
      "stateMutability": "view",
      "type": "function"
    },
    {
      "inputs": [
        {
          "internalType": "string",
          "name": "question",
          "type": "string"
        },
        {
          "internalType": "string",
          "name": "description",
          "type": "string"
        },
        {
          "internalType": "string[]",
          "name": "options",
          "type": "string[]"
        }
      ],
      "name": "createPoll",
      "outputs": [],
      "stateMutability": "nonpayable",
      "type": "function"
    },
    {
      "inputs": [
        {
          "internalType": "uint256",
          "name": "pollId",
          "type": "uint256"
        },
        {
          "internalType": "uint256",
          "name": "optionIndex",
          "type": "uint256"
        }
      ],
      "name": "vote",
      "outputs": [],
      "stateMutability": "nonpayable",
      "type": "function"
    },
    {
      "inputs": [
        {
          "internalType": "uint256",
          "name": "pollId",
          "type": "uint256"
        }
      ],
      "name": "getPoll",
      "outputs": [
        {
          "components": [
            {
              "internalType": "string",
              "name": "question",
              "type": "string"
            },
            {
              "internalType": "string",
              "name": "description",
              "type": "string"
            },
            {
              "internalType": "string[]",
              "name": "options",
              "type": "string[]"
            },
            {
              "internalType": "address",
              "name": "creator",
              "type": "address"
            },
            {
              "internalType": "uint256[]",
              "name": "votes",
              "type": "uint256[]"
            }
          ],
          "internalType": "struct PollContract.Poll",
          "name": "",
          "type": "tuple"
        }
      ],
      "stateMutability": "view",
      "type": "function"
    }
  ],
  "bytecode": "0x608060405234801561001057600080fd5b506114d7806100206000396000f3fe608060405234801561001057600080fd5b506004361061004c5760003560e01c80631a8cbcaa14610051578063ac2f007414610081578063b384abef146100b3578063cfba7a09146100cf575b600080fd5b61006b60048036038101906100669190610cde565b6100eb565b60405161007891906110f5565b60405180910390f35b61009b60048036038101906100969190610cde565b61043f565b6040516100aa93929190611070565b60405180910390f35b6100cd60048036038101906100c89190610d07565b6105a9565b005b6100e960048036038101906100e49190610c47565b610762565b005b6100f361094a565b600080549050821061013a576040517f08c379a0000000000000000000000000000000000000000000000000000000008152600401610131906110d5565b60405180910390fd5b60008281548110610174577f4e487b7100000000000000000000000000000000000000000000000000000000600052603260045260246000fd5b90600052602060002090600502016040518060a001604052908160008201805461019d90611371565b80601f01602080910402602001604051908101604052809291908181526020018280546101c990611371565b80156102165780601f106101eb57610100808354040283529160200191610216565b820191906000526020600020905b8154815290600101906020018083116101f957829003601f168201915b5050505050815260200160018201805461022f90611371565b80601f016020809104026020016040519081016040528092919081815260200182805461025b90611371565b80156102a85780601f1061027d576101008083540402835291602001916102a8565b820191906000526020600020905b81548152906001019060200180831161028b57829003601f168201915b5050505050815260200160028201805480602002602001604051908101604052809291908181526020016000905b828210156103825783829060005260206000200180546102f590611371565b80601f016020809104026020016040519081016040528092919081815260200182805461032190611371565b801561036e5780601f106103435761010080835404028352916020019161036e565b820191906000526020600020905b81548152906001019060200180831161035157829003601f168201915b5050505050815260200190600101906102d6565b5050505081526020016003820160009054906101000a900473ffffffffffffffffffffffffffffffffffffffff1673ffffffffffffffffffffffffffffffffffffffff1673ffffffffffffffffffffffffffffffffffffffff1681526020016004820180548060200260200160405190810160405280929190818152602001828054801561042f57602002820191906000526020600020905b81548152602001906001019080831161041b575b5050505050815250509050919050565b6000818154811061044f57600080fd5b906000526020600020906005020160009150905080600001805461047290611371565b80601f016020809104026020016040519081016040528092919081815260200182805461049e90611371565b80156104eb5780601f106104c0576101008083540402835291602001916104eb565b820191906000526020600020905b8154815290600101906020018083116104ce57829003601f168201915b50505050509080600101805461050090611371565b80601f016020809104026020016040519081016040528092919081815260200182805461052c90611371565b80156105795780601f1061054e57610100808354040283529160200191610579565b820191906000526020600020905b81548152906001019060200180831161055c57829003601f168201915b5050505050908060030160009054906101000a900473ffffffffffffffffffffffffffffffffffffffff16905083565b60008054905082106105f0576040517f08c379a00000000000000000000000000000000000000000000000000000000081526004016105e7906110d5565b60405180910390fd5b6000828154811061062a577f4e487b7100000000000000000000000000000000000000000000000000000000600052603260045260246000fd5b9060005260206000209060050201600201805490508110610680576040517f08c379a0000000000000000000000000000000000000000000000000000000008152600401610677906110b5565b60405180910390fd5b600082815481106106ba577f4e487b7100000000000000000000000000000000000000000000000000000000600052603260045260246000fd5b90600052602060002090600502016004018181548110610703577f4e487b7100000000000000000000000000000000000000000000000000000000600052603260045260246000fd5b90600052602060002001600081548092919061071e906113a3565b91905055507f2acce567deca3aabf56327adbb4524bd5318936eaefa69e3a5208ffda0cfec0982338360405161075693929190611117565b60405180910390a15050565b6000808054905090506000825167ffffffffffffffff8111156107ae577f4e487b7100000000000000000000000000000000000000000000000000000000600052604160045260246000fd5b6040519080825280602002602001820160405280156107dc5781602001602082028036833780820191505090505b50905060006040518060a001604052808781526020018681526020018581526020013373ffffffffffffffffffffffffffffffffffffffff168152602001838152509080600181540180825580915050600190039060005260206000209060050201600090919091909150600082015181600001908051906020019061086392919061098f565b50602082015181600101908051906020019061088092919061098f565b50604082015181600201908051906020019061089d929190610a15565b5060608201518160030160006101000a81548173ffffffffffffffffffffffffffffffffffffffff021916908373ffffffffffffffffffffffffffffffffffffffff1602179055506080820151816004019080519060200190610901929190610a75565b5050507f06b76543f06d648280a6d4fca5d96e61c9390d0b3c608850f365ed7c8e876d0d828686863360405161093b95949392919061114e565b60405180910390a15050505050565b6040518060a00160405280606081526020016060815260200160608152602001600073ffffffffffffffffffffffffffffffffffffffff168152602001606081525090565b82805461099b90611371565b90600052602060002090601f0160209004810192826109bd5760008555610a04565b82601f106109d657805160ff1916838001178555610a04565b82800160010185558215610a04579182015b82811115610a035782518255916020019190600101906109e8565b5b509050610a119190610ac2565b5090565b828054828255906000526020600020908101928215610a64579160200282015b82811115610a63578251829080519060200190610a5392919061098f565b5091602001919060010190610a35565b5b509050610a719190610adf565b5090565b828054828255906000526020600020908101928215610ab1579160200282015b82811115610ab0578251825591602001919060010190610a95565b5b509050610abe9190610ac2565b5090565b5b80821115610adb576000816000905550600101610ac3565b5090565b5b80821115610aff5760008181610af69190610b03565b50600101610ae0565b5090565b508054610b0f90611371565b6000825580601f10610b215750610b40565b601f016020900490600052602060002090810190610b3f9190610ac2565b5b50565b6000610b56610b51846111e7565b6111b6565b9050808382526020820190508260005b85811015610b965781358501610b7c8882610c08565b845260208401935060208301925050600181019050610b66565b5050509392505050565b6000610bb3610bae84611213565b6111b6565b905082815260208101848484011115610bcb57600080fd5b610bd684828561132f565b509392505050565b600082601f830112610bef57600080fd5b8135610bff848260208601610b43565b91505092915050565b600082601f830112610c1957600080fd5b8135610c29848260208601610ba0565b91505092915050565b600081359050610c418161148a565b92915050565b600080600060608486031215610c5c57600080fd5b600084013567ffffffffffffffff811115610c7657600080fd5b610c8286828701610c08565b935050602084013567ffffffffffffffff811115610c9f57600080fd5b610cab86828701610c08565b925050604084013567ffffffffffffffff811115610cc857600080fd5b610cd486828701610bde565b9150509250925092565b600060208284031215610cf057600080fd5b6000610cfe84828501610c32565b91505092915050565b60008060408385031215610d1a57600080fd5b6000610d2885828601610c32565b9250506020610d3985828601610c32565b9150509250929050565b6000610d4f8383610ed5565b905092915050565b6000610d638383611052565b60208301905092915050565b610d78816112f3565b82525050565b610d87816112f3565b82525050565b6000610d9882611263565b610da2818561129e565b935083602082028501610db485611243565b8060005b85811015610df05784840389528151610dd18582610d43565b9450610ddc83611284565b925060208a01995050600181019050610db8565b50829750879550505050505092915050565b6000610e0d82611263565b610e1781856112af565b935083602082028501610e2985611243565b8060005b85811015610e655784840389528151610e468582610d43565b9450610e5183611284565b925060208a01995050600181019050610e2d565b50829750879550505050505092915050565b6000610e828261126e565b610e8c81856112c0565b9350610e9783611253565b8060005b83811015610ec8578151610eaf8882610d57565b9750610eba83611291565b925050600181019050610e9b565b5085935050505092915050565b6000610ee082611279565b610eea81856112d1565b9350610efa81856020860161133e565b610f0381611479565b840191505092915050565b6000610f1982611279565b610f2381856112e2565b9350610f3381856020860161133e565b610f3c81611479565b840191505092915050565b6000610f54600e836112e2565b91507f496e76616c6964206f7074696f6e0000000000000000000000000000000000006000830152602082019050919050565b6000610f946013836112e2565b91507f506f6c6c20646f6573206e6f74206578697374000000000000000000000000006000830152602082019050919050565b600060a0830160008301518482036000860152610fe48282610ed5565b91505060208301518482036020860152610ffe8282610ed5565b915050604083015184820360408601526110188282610d8d565b915050606083015161102d6060860182610d6f565b50608083015184820360808601526110458282610e77565b9150508091505092915050565b61105b81611325565b82525050565b61106a81611325565b82525050565b6000606082019050818103600083015261108a8186610f0e565b9050818103602083015261109e8185610f0e565b90506110ad6040830184610d7e565b949350505050565b600060208201905081810360008301526110ce81610f47565b9050919050565b600060208201905081810360008301526110ee81610f87565b9050919050565b6000602082019050818103600083015261110f8184610fc7565b905092915050565b600060608201905061112c6000830186611061565b6111396020830185610d7e565b6111466040830184611061565b949350505050565b600060a0820190506111636000830188611061565b81810360208301526111758187610f0e565b905081810360408301526111898186610f0e565b9050818103606083015261119d8185610e02565b90506111ac6080830184610d7e565b9695505050505050565b6000604051905081810181811067ffffffffffffffff821117156111dd576111dc61144a565b5b8060405250919050565b600067ffffffffffffffff8211156112025761120161144a565b5b602082029050602081019050919050565b600067ffffffffffffffff82111561122e5761122d61144a565b5b601f19601f8301169050602081019050919050565b6000819050602082019050919050565b6000819050602082019050919050565b600081519050919050565b600081519050919050565b600081519050919050565b6000602082019050919050565b6000602082019050919050565b600082825260208201905092915050565b600082825260208201905092915050565b600082825260208201905092915050565b600082825260208201905092915050565b600082825260208201905092915050565b60006112fe82611305565b9050919050565b600073ffffffffffffffffffffffffffffffffffffffff82169050919050565b6000819050919050565b82818337600083830152505050565b60005b8381101561135c578082015181840152602081019050611341565b8381111561136b576000848401525b50505050565b6000600282049050600182168061138957607f821691505b6020821081141561139d5761139c61141b565b5b50919050565b60006113ae82611325565b91507fffffffffffffffffffffffffffffffffffffffffffffffffffffffffffffffff8214156113e1576113e06113ec565b5b600182019050919050565b7f4e487b7100000000000000000000000000000000000000000000000000000000600052601160045260246000fd5b7f4e487b7100000000000000000000000000000000000000000000000000000000600052602260045260246000fd5b7f4e487b7100000000000000000000000000000000000000000000000000000000600052604160045260246000fd5b6000601f19601f8301169050919050565b61149381611325565b811461149e57600080fd5b5056fea26469706673582212207ec3b8b5256c2485d45fdc58f6a6ec8f87e3cedf64cde465f37608da8474f4f964736f6c63430008000033",
  "immutableReferences": {},
  "source": "// SPDX-License-Identifier: MIT\r\npragma solidity ^0.8.0;\r\n\r\ncontract PollContract {\r\n    event PollCreated(\r\n        uint256 pollId,\r\n        string question,\r\n        string description,\r\n        string[] options,\r\n        address creator\r\n    );\r\n\r\n    event VoteCast(\r\n        uint256 pollId,\r\n        address voter,\r\n        uint256 optionIndex\r\n    );\r\n\r\n    struct Poll {\r\n        string question;\r\n        string description;\r\n        string[] options;\r\n        address creator;\r\n        uint256[] votes;\r\n    }\r\n\r\n    Poll[] public polls;\r\n\r\n    function createPoll(\r\n        string memory question,\r\n        string memory description,\r\n        string[] memory options\r\n    ) public {\r\n        uint256 pollId = polls.length;\r\n        uint256[] memory initialVotes = new uint256[](options.length);\r\n        polls.push(Poll(question, description, options, msg.sender, initialVotes));\r\n        emit PollCreated(pollId, question, description, options, msg.sender);\r\n    }\r\n\r\n    function vote(uint256 pollId, uint256 optionIndex) public {\r\n        require(pollId < polls.length, \"Poll does not exist\");\r\n        require(optionIndex < polls[pollId].options.length, \"Invalid option\");\r\n        \r\n        polls[pollId].votes[optionIndex]++;\r\n        emit VoteCast(pollId, msg.sender, optionIndex);\r\n    }\r\n\r\n    function getPoll(uint256 pollId) public view returns (Poll memory) {\r\n        require(pollId < polls.length, \"Poll does not exist\");\r\n        return polls[pollId];\r\n    }\r\n}\r\n",
  "sourcePath": "E:\\vs-code\\React Js\\MERN Stack\\Internship\\Decentralized Voting Application\\Server\\contracts\\MyContract.sol",
  "compiler": {
    "name": "solc",
    "version": "0.8.0+commit.c7dfd78e.Emscripten.clang"
  },
  "schemaVersion": "3.4.16",
  "updatedAt": "2024-08-03T03:45:32.770Z",
  "devdoc": {
    "kind": "dev",
    "methods": {},
    "version": 1
  },
  "userdoc": {
    "kind": "user",
    "methods": {},
    "version": 1
  }
}